{
  "_format": "hh-sol-artifact-1",
  "contractName": "Token",
  "sourceName": "contracts/Token.sol",
  "abi": [
    {
      "inputs": [],
      "stateMutability": "nonpayable",
      "type": "constructor"
    },
    {
      "anonymous": false,
      "inputs": [
        {
          "indexed": true,
          "internalType": "address",
          "name": "tokenOwner",
          "type": "address"
        },
        {
          "indexed": true,
          "internalType": "address",
          "name": "spender",
          "type": "address"
        },
        {
          "indexed": false,
          "internalType": "uint256",
          "name": "tokens",
          "type": "uint256"
        }
      ],
      "name": "Approval",
      "type": "event"
    },
    {
      "anonymous": false,
      "inputs": [
        {
          "indexed": true,
          "internalType": "address",
          "name": "_from",
          "type": "address"
        },
        {
          "indexed": true,
          "internalType": "address",
          "name": "_to",
          "type": "address"
        },
        {
          "indexed": false,
          "internalType": "uint256",
          "name": "_value",
          "type": "uint256"
        }
      ],
      "name": "Transfer",
      "type": "event"
    },
    {
      "inputs": [
        {
          "internalType": "address",
          "name": "_owner",
          "type": "address"
        },
        {
          "internalType": "address",
          "name": "_spender",
          "type": "address"
        }
      ],
      "name": "allowance",
      "outputs": [
        {
          "internalType": "uint256",
          "name": "allow",
          "type": "uint256"
        }
      ],
      "stateMutability": "view",
      "type": "function"
    },
    {
      "inputs": [
        {
          "internalType": "address",
          "name": "_spender",
          "type": "address"
        },
        {
          "internalType": "uint256",
          "name": "_value",
          "type": "uint256"
        }
      ],
      "name": "approve",
      "outputs": [
        {
          "internalType": "bool",
          "name": "answer",
          "type": "bool"
        }
      ],
      "stateMutability": "nonpayable",
      "type": "function"
    },
    {
      "inputs": [
        {
          "internalType": "address",
          "name": "_owner",
          "type": "address"
        }
      ],
      "name": "balanceOf",
      "outputs": [
        {
          "internalType": "uint256",
          "name": "balance",
          "type": "uint256"
        }
      ],
      "stateMutability": "view",
      "type": "function"
    },
    {
      "inputs": [
        {
          "internalType": "address",
          "name": "",
          "type": "address"
        }
      ],
      "name": "balances",
      "outputs": [
        {
          "internalType": "uint256",
          "name": "",
          "type": "uint256"
        }
      ],
      "stateMutability": "view",
      "type": "function"
    },
    {
      "inputs": [],
      "name": "decimals",
      "outputs": [
        {
          "internalType": "uint8",
          "name": "",
          "type": "uint8"
        }
      ],
      "stateMutability": "view",
      "type": "function"
    },
    {
      "inputs": [],
      "name": "name",
      "outputs": [
        {
          "internalType": "string",
          "name": "",
          "type": "string"
        }
      ],
      "stateMutability": "view",
      "type": "function"
    },
    {
      "inputs": [],
      "name": "owner",
      "outputs": [
        {
          "internalType": "address",
          "name": "",
          "type": "address"
        }
      ],
      "stateMutability": "view",
      "type": "function"
    },
    {
      "inputs": [],
      "name": "symbol",
      "outputs": [
        {
          "internalType": "string",
          "name": "",
          "type": "string"
        }
      ],
      "stateMutability": "view",
      "type": "function"
    },
    {
      "inputs": [],
      "name": "totalSupply",
      "outputs": [
        {
          "internalType": "uint256",
          "name": "totSupply",
          "type": "uint256"
        }
      ],
      "stateMutability": "view",
      "type": "function"
    },
    {
      "inputs": [],
      "name": "totalSupply_",
      "outputs": [
        {
          "internalType": "uint256",
          "name": "",
          "type": "uint256"
        }
      ],
      "stateMutability": "view",
      "type": "function"
    },
    {
      "inputs": [
        {
          "internalType": "address",
          "name": "_to",
          "type": "address"
        },
        {
          "internalType": "uint256",
          "name": "_value",
          "type": "uint256"
        }
      ],
      "name": "transfer",
      "outputs": [
        {
          "internalType": "bool",
          "name": "answer",
          "type": "bool"
        }
      ],
      "stateMutability": "nonpayable",
      "type": "function"
    },
    {
      "inputs": [
        {
          "internalType": "address",
          "name": "_from",
          "type": "address"
        },
        {
          "internalType": "address",
          "name": "_to",
          "type": "address"
        },
        {
          "internalType": "uint256",
          "name": "_value",
          "type": "uint256"
        }
      ],
      "name": "transferFrom",
      "outputs": [
        {
          "internalType": "bool",
          "name": "answer",
          "type": "bool"
        }
      ],
      "stateMutability": "nonpayable",
      "type": "function"
    }
  ],
  "bytecode": "0x60806040523480156200001157600080fd5b50336000806101000a81548173ffffffffffffffffffffffffffffffffffffffff021916908373ffffffffffffffffffffffffffffffffffffffff1602179055506040518060400160405280600581526020017f53657a616d000000000000000000000000000000000000000000000000000000815250600190805190602001906200009f92919062000180565b506040518060400160405280600381526020017f535a4d000000000000000000000000000000000000000000000000000000000081525060029080519060200190620000ed92919062000180565b506012600460006101000a81548160ff021916908360ff1602179055506103e8600381905550600354600560008060009054906101000a900473ffffffffffffffffffffffffffffffffffffffff1673ffffffffffffffffffffffffffffffffffffffff1673ffffffffffffffffffffffffffffffffffffffff1681526020019081526020016000208190555062000295565b8280546200018e9062000230565b90600052602060002090601f016020900481019282620001b25760008555620001fe565b82601f10620001cd57805160ff1916838001178555620001fe565b82800160010185558215620001fe579182015b82811115620001fd578251825591602001919060010190620001e0565b5b5090506200020d919062000211565b5090565b5b808211156200022c57600081600090555060010162000212565b5090565b600060028204905060018216806200024957607f821691505b6020821081141562000260576200025f62000266565b5b50919050565b7f4e487b7100000000000000000000000000000000000000000000000000000000600052602260045260246000fd5b6110f080620002a56000396000f3fe608060405234801561001057600080fd5b50600436106100b45760003560e01c8063324536eb11610071578063324536eb146101a357806370a08231146101c15780638da5cb5b146101f157806395d89b411461020f578063a9059cbb1461022d578063dd62ed3e1461025d576100b4565b806306fdde03146100b9578063095ea7b3146100d757806318160ddd1461010757806323b872dd1461012557806327e235e314610155578063313ce56714610185575b600080fd5b6100c161028d565b6040516100ce9190610dd3565b60405180910390f35b6100f160048036038101906100ec9190610ca6565b61031b565b6040516100fe9190610db8565b60405180910390f35b61010f61041f565b60405161011c9190610e35565b60405180910390f35b61013f600480360381019061013a9190610c57565b610429565b60405161014c9190610db8565b60405180910390f35b61016f600480360381019061016a9190610bf2565b610800565b60405161017c9190610e35565b60405180910390f35b61018d610818565b60405161019a9190610e50565b60405180910390f35b6101ab61082b565b6040516101b89190610e35565b60405180910390f35b6101db60048036038101906101d69190610bf2565b610831565b6040516101e89190610e35565b60405180910390f35b6101f961087a565b6040516102069190610d9d565b60405180910390f35b61021761089e565b6040516102249190610dd3565b60405180910390f35b61024760048036038101906102429190610ca6565b61092c565b6040516102549190610db8565b60405180910390f35b61027760048036038101906102729190610c1b565b610b41565b6040516102849190610e35565b60405180910390f35b6001805461029a90610f99565b80601f01602080910402602001604051908101604052809291908181526020018280546102c690610f99565b80156103135780601f106102e857610100808354040283529160200191610313565b820191906000526020600020905b8154815290600101906020018083116102f657829003601f168201915b505050505081565b600081600660003373ffffffffffffffffffffffffffffffffffffffff1673ffffffffffffffffffffffffffffffffffffffff16815260200190815260200160002060008573ffffffffffffffffffffffffffffffffffffffff1673ffffffffffffffffffffffffffffffffffffffff16815260200190815260200160002060008282546103a99190610e87565b925050819055508273ffffffffffffffffffffffffffffffffffffffff163373ffffffffffffffffffffffffffffffffffffffff167f8c5be1e5ebec7d5bd14f71427d1e84f3dd0314c0f7b2291e5b200ac8c7c3b9258460405161040d9190610e35565b60405180910390a36001905092915050565b6000600354905090565b6000600560008573ffffffffffffffffffffffffffffffffffffffff1673ffffffffffffffffffffffffffffffffffffffff168152602001908152602001600020548211156104ad576040517f08c379a00000000000000000000000000000000000000000000000000000000081526004016104a490610e15565b60405180910390fd5b600660008573ffffffffffffffffffffffffffffffffffffffff1673ffffffffffffffffffffffffffffffffffffffff16815260200190815260200160002060003373ffffffffffffffffffffffffffffffffffffffff1673ffffffffffffffffffffffffffffffffffffffff1681526020019081526020016000205482111561056c576040517f08c379a000000000000000000000000000000000000000000000000000000000815260040161056390610df5565b60405180910390fd5b81600560008673ffffffffffffffffffffffffffffffffffffffff1673ffffffffffffffffffffffffffffffffffffffff168152602001908152602001600020546105b79190610edd565b600560008673ffffffffffffffffffffffffffffffffffffffff1673ffffffffffffffffffffffffffffffffffffffff1681526020019081526020016000208190555081600660008673ffffffffffffffffffffffffffffffffffffffff1673ffffffffffffffffffffffffffffffffffffffff16815260200190815260200160002060003373ffffffffffffffffffffffffffffffffffffffff1673ffffffffffffffffffffffffffffffffffffffff168152602001908152602001600020546106829190610edd565b600660008673ffffffffffffffffffffffffffffffffffffffff1673ffffffffffffffffffffffffffffffffffffffff16815260200190815260200160002060003373ffffffffffffffffffffffffffffffffffffffff1673ffffffffffffffffffffffffffffffffffffffff1681526020019081526020016000208190555081600560008573ffffffffffffffffffffffffffffffffffffffff1673ffffffffffffffffffffffffffffffffffffffff1681526020019081526020016000205461074d9190610e87565b600560008573ffffffffffffffffffffffffffffffffffffffff1673ffffffffffffffffffffffffffffffffffffffff168152602001908152602001600020819055508273ffffffffffffffffffffffffffffffffffffffff168473ffffffffffffffffffffffffffffffffffffffff167fddf252ad1be2c89b69c2b068fc378daa952ba7f163c4a11628f55a4df523b3ef846040516107ed9190610e35565b60405180910390a3600190509392505050565b60056020528060005260406000206000915090505481565b600460009054906101000a900460ff1681565b60035481565b6000600560008373ffffffffffffffffffffffffffffffffffffffff1673ffffffffffffffffffffffffffffffffffffffff168152602001908152602001600020549050919050565b60008054906101000a900473ffffffffffffffffffffffffffffffffffffffff1681565b600280546108ab90610f99565b80601f01602080910402602001604051908101604052809291908181526020018280546108d790610f99565b80156109245780601f106108f957610100808354040283529160200191610924565b820191906000526020600020905b81548152906001019060200180831161090757829003601f168201915b505050505081565b600081600560003373ffffffffffffffffffffffffffffffffffffffff1673ffffffffffffffffffffffffffffffffffffffff1681526020019081526020016000205410156109b0576040517f08c379a00000000000000000000000000000000000000000000000000000000081526004016109a790610e15565b60405180910390fd5b600033905082600560008373ffffffffffffffffffffffffffffffffffffffff1673ffffffffffffffffffffffffffffffffffffffff16815260200190815260200160002054610a009190610edd565b600560008373ffffffffffffffffffffffffffffffffffffffff1673ffffffffffffffffffffffffffffffffffffffff1681526020019081526020016000208190555082600560008673ffffffffffffffffffffffffffffffffffffffff1673ffffffffffffffffffffffffffffffffffffffff16815260200190815260200160002054610a8e9190610e87565b600560008673ffffffffffffffffffffffffffffffffffffffff1673ffffffffffffffffffffffffffffffffffffffff168152602001908152602001600020819055508373ffffffffffffffffffffffffffffffffffffffff168173ffffffffffffffffffffffffffffffffffffffff167fddf252ad1be2c89b69c2b068fc378daa952ba7f163c4a11628f55a4df523b3ef85604051610b2e9190610e35565b60405180910390a3600191505092915050565b6000600660008473ffffffffffffffffffffffffffffffffffffffff1673ffffffffffffffffffffffffffffffffffffffff16815260200190815260200160002060008373ffffffffffffffffffffffffffffffffffffffff1673ffffffffffffffffffffffffffffffffffffffff16815260200190815260200160002054905092915050565b600081359050610bd78161108c565b92915050565b600081359050610bec816110a3565b92915050565b600060208284031215610c0457600080fd5b6000610c1284828501610bc8565b91505092915050565b60008060408385031215610c2e57600080fd5b6000610c3c85828601610bc8565b9250506020610c4d85828601610bc8565b9150509250929050565b600080600060608486031215610c6c57600080fd5b6000610c7a86828701610bc8565b9350506020610c8b86828701610bc8565b9250506040610c9c86828701610bdd565b9150509250925092565b60008060408385031215610cb957600080fd5b6000610cc785828601610bc8565b9250506020610cd885828601610bdd565b9150509250929050565b610ceb81610f11565b82525050565b610cfa81610f23565b82525050565b6000610d0b82610e6b565b610d158185610e76565b9350610d25818560208601610f66565b610d2e81611029565b840191505092915050565b6000610d46601c83610e76565b9150610d518261103a565b602082019050919050565b6000610d69601283610e76565b9150610d7482611063565b602082019050919050565b610d8881610f4f565b82525050565b610d9781610f59565b82525050565b6000602082019050610db26000830184610ce2565b92915050565b6000602082019050610dcd6000830184610cf1565b92915050565b60006020820190508181036000830152610ded8184610d00565b905092915050565b60006020820190508181036000830152610e0e81610d39565b9050919050565b60006020820190508181036000830152610e2e81610d5c565b9050919050565b6000602082019050610e4a6000830184610d7f565b92915050565b6000602082019050610e656000830184610d8e565b92915050565b600081519050919050565b600082825260208201905092915050565b6000610e9282610f4f565b9150610e9d83610f4f565b9250827fffffffffffffffffffffffffffffffffffffffffffffffffffffffffffffffff03821115610ed257610ed1610fcb565b5b828201905092915050565b6000610ee882610f4f565b9150610ef383610f4f565b925082821015610f0657610f05610fcb565b5b828203905092915050565b6000610f1c82610f2f565b9050919050565b60008115159050919050565b600073ffffffffffffffffffffffffffffffffffffffff82169050919050565b6000819050919050565b600060ff82169050919050565b60005b83811015610f84578082015181840152602081019050610f69565b83811115610f93576000848401525b50505050565b60006002820490506001821680610fb157607f821691505b60208210811415610fc557610fc4610ffa565b5b50919050565b7f4e487b7100000000000000000000000000000000000000000000000000000000600052601160045260246000fd5b7f4e487b7100000000000000000000000000000000000000000000000000000000600052602260045260246000fd5b6000601f19601f8301169050919050565b7f496e73756666696369656e7420436f6e6669726d65642046756e647300000000600082015250565b7f496e73756666696369656e742066756e64730000000000000000000000000000600082015250565b61109581610f11565b81146110a057600080fd5b50565b6110ac81610f4f565b81146110b757600080fd5b5056fea2646970667358221220a60a3c465948b88c97f016526d5387a386786954e5ed8f24fae9a6f9e4f3330d64736f6c63430008040033",
  "linkReferences": {},
  "deployedLinkReferences": {}
}