{
  "_format": "hh-sol-artifact-1",
  "contractName": "Token",
  "sourceName": "contracts/Token.sol",
  "abi": [
    {
      "inputs": [],
      "stateMutability": "nonpayable",
      "type": "constructor"
    },
    {
      "anonymous": false,
      "inputs": [
        {
          "indexed": true,
          "internalType": "address",
          "name": "tokenOwner",
          "type": "address"
        },
        {
          "indexed": true,
          "internalType": "address",
          "name": "spender",
          "type": "address"
        },
        {
          "indexed": false,
          "internalType": "uint256",
          "name": "tokens",
          "type": "uint256"
        }
      ],
      "name": "Approval",
      "type": "event"
    },
    {
      "anonymous": false,
      "inputs": [
        {
          "indexed": true,
          "internalType": "address",
          "name": "_from",
          "type": "address"
        },
        {
          "indexed": true,
          "internalType": "address",
          "name": "_to",
          "type": "address"
        },
        {
          "indexed": false,
          "internalType": "uint256",
          "name": "_value",
          "type": "uint256"
        }
      ],
      "name": "Transfer",
      "type": "event"
    },
    {
      "inputs": [
        {
          "internalType": "address",
          "name": "_owner",
          "type": "address"
        },
        {
          "internalType": "address",
          "name": "_spender",
          "type": "address"
        }
      ],
      "name": "allowance",
      "outputs": [
        {
          "internalType": "uint256[1]",
          "name": "a",
          "type": "uint256[1]"
        }
      ],
      "stateMutability": "view",
      "type": "function"
    },
    {
      "inputs": [
        {
          "internalType": "address",
          "name": "_spender",
          "type": "address"
        },
        {
          "internalType": "uint256",
          "name": "_value",
          "type": "uint256"
        }
      ],
      "name": "approve",
      "outputs": [
        {
          "internalType": "bool[1]",
          "name": "a",
          "type": "bool[1]"
        }
      ],
      "stateMutability": "nonpayable",
      "type": "function"
    },
    {
      "inputs": [
        {
          "internalType": "address",
          "name": "_owner",
          "type": "address"
        }
      ],
      "name": "balanceOf",
      "outputs": [
        {
          "internalType": "uint256[1]",
          "name": "a",
          "type": "uint256[1]"
        }
      ],
      "stateMutability": "view",
      "type": "function"
    },
    {
      "inputs": [
        {
          "internalType": "address",
          "name": "",
          "type": "address"
        }
      ],
      "name": "balances",
      "outputs": [
        {
          "internalType": "uint256",
          "name": "",
          "type": "uint256"
        }
      ],
      "stateMutability": "view",
      "type": "function"
    },
    {
      "inputs": [],
      "name": "decimals",
      "outputs": [
        {
          "internalType": "uint8",
          "name": "",
          "type": "uint8"
        }
      ],
      "stateMutability": "view",
      "type": "function"
    },
    {
      "inputs": [],
      "name": "name",
      "outputs": [
        {
          "internalType": "string",
          "name": "",
          "type": "string"
        }
      ],
      "stateMutability": "view",
      "type": "function"
    },
    {
      "inputs": [],
      "name": "owner",
      "outputs": [
        {
          "internalType": "address",
          "name": "",
          "type": "address"
        }
      ],
      "stateMutability": "view",
      "type": "function"
    },
    {
      "inputs": [],
      "name": "symbol",
      "outputs": [
        {
          "internalType": "string",
          "name": "",
          "type": "string"
        }
      ],
      "stateMutability": "view",
      "type": "function"
    },
    {
      "inputs": [],
      "name": "totalSupply",
      "outputs": [
        {
          "internalType": "uint256[1]",
          "name": "a",
          "type": "uint256[1]"
        }
      ],
      "stateMutability": "view",
      "type": "function"
    },
    {
      "inputs": [],
      "name": "totalSupply_",
      "outputs": [
        {
          "internalType": "uint256",
          "name": "",
          "type": "uint256"
        }
      ],
      "stateMutability": "view",
      "type": "function"
    },
    {
      "inputs": [
        {
          "internalType": "address",
          "name": "_to",
          "type": "address"
        },
        {
          "internalType": "uint256",
          "name": "_value",
          "type": "uint256"
        }
      ],
      "name": "transfer",
      "outputs": [
        {
          "internalType": "bool[1]",
          "name": "a",
          "type": "bool[1]"
        }
      ],
      "stateMutability": "nonpayable",
      "type": "function"
    },
    {
      "inputs": [
        {
          "internalType": "address",
          "name": "_from",
          "type": "address"
        },
        {
          "internalType": "address",
          "name": "_to",
          "type": "address"
        },
        {
          "internalType": "uint256",
          "name": "_value",
          "type": "uint256"
        }
      ],
      "name": "transferFrom",
      "outputs": [
        {
          "internalType": "bool[1]",
          "name": "a",
          "type": "bool[1]"
        }
      ],
      "stateMutability": "nonpayable",
      "type": "function"
    }
  ],
  "bytecode": "0x60806040523480156200001157600080fd5b50336000806101000a81548173ffffffffffffffffffffffffffffffffffffffff021916908373ffffffffffffffffffffffffffffffffffffffff1602179055506040518060400160405280600581526020017f53657a616d000000000000000000000000000000000000000000000000000000815250600190805190602001906200009f92919062000180565b506040518060400160405280600381526020017f535a4d000000000000000000000000000000000000000000000000000000000081525060029080519060200190620000ed92919062000180565b506012600460006101000a81548160ff021916908360ff1602179055506103e8600381905550600354600560008060009054906101000a900473ffffffffffffffffffffffffffffffffffffffff1673ffffffffffffffffffffffffffffffffffffffff1673ffffffffffffffffffffffffffffffffffffffff1681526020019081526020016000208190555062000295565b8280546200018e9062000230565b90600052602060002090601f016020900481019282620001b25760008555620001fe565b82601f10620001cd57805160ff1916838001178555620001fe565b82800160010185558215620001fe579182015b82811115620001fd578251825591602001919060010190620001e0565b5b5090506200020d919062000211565b5090565b5b808211156200022c57600081600090555060010162000212565b5090565b600060028204905060018216806200024957607f821691505b6020821081141562000260576200025f62000266565b5b50919050565b7f4e487b7100000000000000000000000000000000000000000000000000000000600052602260045260246000fd5b61145280620002a56000396000f3fe608060405234801561001057600080fd5b50600436106100b45760003560e01c8063324536eb11610071578063324536eb146101a357806370a08231146101c15780638da5cb5b146101f157806395d89b411461020f578063a9059cbb1461022d578063dd62ed3e1461025d576100b4565b806306fdde03146100b9578063095ea7b3146100d757806318160ddd1461010757806323b872dd1461012557806327e235e314610155578063313ce56714610185575b600080fd5b6100c161028d565b6040516100ce91906110db565b60405180910390f35b6100f160048036038101906100ec9190610ea6565b61031b565b6040516100fe91906110a5565b60405180910390f35b61010f61046c565b60405161011c91906110c0565b60405180910390f35b61013f600480360381019061013a9190610e57565b6104bd565b60405161014c91906110a5565b60405180910390f35b61016f600480360381019061016a9190610df2565b6108e1565b60405161017c919061113d565b60405180910390f35b61018d6108f9565b60405161019a9190611158565b60405180910390f35b6101ab61090c565b6040516101b8919061113d565b60405180910390f35b6101db60048036038101906101d69190610df2565b610912565b6040516101e891906110c0565b60405180910390f35b6101f96109a2565b604051610206919061108a565b60405180910390f35b6102176109c6565b60405161022491906110db565b60405180910390f35b61024760048036038101906102429190610ea6565b610a54565b60405161025491906110a5565b60405180910390f35b61027760048036038101906102729190610e1b565b610cb6565b60405161028491906110c0565b60405180910390f35b6001805461029a906112fb565b80601f01602080910402602001604051908101604052809291908181526020018280546102c6906112fb565b80156103135780601f106102e857610100808354040283529160200191610313565b820191906000526020600020905b8154815290600101906020018083116102f657829003601f168201915b505050505081565b610323610d84565b81600660003373ffffffffffffffffffffffffffffffffffffffff1673ffffffffffffffffffffffffffffffffffffffff16815260200190815260200160002060008573ffffffffffffffffffffffffffffffffffffffff1673ffffffffffffffffffffffffffffffffffffffff16815260200190815260200160002060008282546103af91906111e9565b925050819055508273ffffffffffffffffffffffffffffffffffffffff163373ffffffffffffffffffffffffffffffffffffffff167f8c5be1e5ebec7d5bd14f71427d1e84f3dd0314c0f7b2291e5b200ac8c7c3b92584604051610413919061113d565b60405180910390a3600181600060018110610457577f4e487b7100000000000000000000000000000000000000000000000000000000600052603260045260246000fd5b60200201901515908115158152505092915050565b610474610da6565b600354816000600181106104b1577f4e487b7100000000000000000000000000000000000000000000000000000000600052603260045260246000fd5b60200201818152505090565b6104c5610d84565b600560008573ffffffffffffffffffffffffffffffffffffffff1673ffffffffffffffffffffffffffffffffffffffff16815260200190815260200160002054821115610547576040517f08c379a000000000000000000000000000000000000000000000000000000000815260040161053e9061111d565b60405180910390fd5b600660008573ffffffffffffffffffffffffffffffffffffffff1673ffffffffffffffffffffffffffffffffffffffff16815260200190815260200160002060003373ffffffffffffffffffffffffffffffffffffffff1673ffffffffffffffffffffffffffffffffffffffff16815260200190815260200160002054821115610606576040517f08c379a00000000000000000000000000000000000000000000000000000000081526004016105fd906110fd565b60405180910390fd5b81600560008673ffffffffffffffffffffffffffffffffffffffff1673ffffffffffffffffffffffffffffffffffffffff16815260200190815260200160002054610651919061123f565b600560008673ffffffffffffffffffffffffffffffffffffffff1673ffffffffffffffffffffffffffffffffffffffff1681526020019081526020016000208190555081600660008673ffffffffffffffffffffffffffffffffffffffff1673ffffffffffffffffffffffffffffffffffffffff16815260200190815260200160002060003373ffffffffffffffffffffffffffffffffffffffff1673ffffffffffffffffffffffffffffffffffffffff1681526020019081526020016000205461071c919061123f565b600660008673ffffffffffffffffffffffffffffffffffffffff1673ffffffffffffffffffffffffffffffffffffffff16815260200190815260200160002060003373ffffffffffffffffffffffffffffffffffffffff1673ffffffffffffffffffffffffffffffffffffffff1681526020019081526020016000208190555081600560008573ffffffffffffffffffffffffffffffffffffffff1673ffffffffffffffffffffffffffffffffffffffff168152602001908152602001600020546107e791906111e9565b600560008573ffffffffffffffffffffffffffffffffffffffff1673ffffffffffffffffffffffffffffffffffffffff168152602001908152602001600020819055508273ffffffffffffffffffffffffffffffffffffffff168473ffffffffffffffffffffffffffffffffffffffff167fddf252ad1be2c89b69c2b068fc378daa952ba7f163c4a11628f55a4df523b3ef84604051610887919061113d565b60405180910390a36001816000600181106108cb577f4e487b7100000000000000000000000000000000000000000000000000000000600052603260045260246000fd5b6020020190151590811515815250509392505050565b60056020528060005260406000206000915090505481565b600460009054906101000a900460ff1681565b60035481565b61091a610da6565b600560008373ffffffffffffffffffffffffffffffffffffffff1673ffffffffffffffffffffffffffffffffffffffff1681526020019081526020016000205481600060018110610994577f4e487b7100000000000000000000000000000000000000000000000000000000600052603260045260246000fd5b602002018181525050919050565b60008054906101000a900473ffffffffffffffffffffffffffffffffffffffff1681565b600280546109d3906112fb565b80601f01602080910402602001604051908101604052809291908181526020018280546109ff906112fb565b8015610a4c5780601f10610a2157610100808354040283529160200191610a4c565b820191906000526020600020905b815481529060010190602001808311610a2f57829003601f168201915b505050505081565b610a5c610d84565b81600560003373ffffffffffffffffffffffffffffffffffffffff1673ffffffffffffffffffffffffffffffffffffffff168152602001908152602001600020541015610ade576040517f08c379a0000000000000000000000000000000000000000000000000000000008152600401610ad59061111d565b60405180910390fd5b600033905082600560008373ffffffffffffffffffffffffffffffffffffffff1673ffffffffffffffffffffffffffffffffffffffff16815260200190815260200160002054610b2e919061123f565b600560008373ffffffffffffffffffffffffffffffffffffffff1673ffffffffffffffffffffffffffffffffffffffff1681526020019081526020016000208190555082600560008673ffffffffffffffffffffffffffffffffffffffff1673ffffffffffffffffffffffffffffffffffffffff16815260200190815260200160002054610bbc91906111e9565b600560008673ffffffffffffffffffffffffffffffffffffffff1673ffffffffffffffffffffffffffffffffffffffff168152602001908152602001600020819055508373ffffffffffffffffffffffffffffffffffffffff168173ffffffffffffffffffffffffffffffffffffffff167fddf252ad1be2c89b69c2b068fc378daa952ba7f163c4a11628f55a4df523b3ef85604051610c5c919061113d565b60405180910390a3600182600060018110610ca0577f4e487b7100000000000000000000000000000000000000000000000000000000600052603260045260246000fd5b6020020190151590811515815250505092915050565b610cbe610da6565b600660008473ffffffffffffffffffffffffffffffffffffffff1673ffffffffffffffffffffffffffffffffffffffff16815260200190815260200160002060008373ffffffffffffffffffffffffffffffffffffffff1673ffffffffffffffffffffffffffffffffffffffff1681526020019081526020016000205481600060018110610d75577f4e487b7100000000000000000000000000000000000000000000000000000000600052603260045260246000fd5b60200201818152505092915050565b6040518060200160405280600190602082028036833780820191505090505090565b6040518060200160405280600190602082028036833780820191505090505090565b600081359050610dd7816113ee565b92915050565b600081359050610dec81611405565b92915050565b600060208284031215610e0457600080fd5b6000610e1284828501610dc8565b91505092915050565b60008060408385031215610e2e57600080fd5b6000610e3c85828601610dc8565b9250506020610e4d85828601610dc8565b9150509250929050565b600080600060608486031215610e6c57600080fd5b6000610e7a86828701610dc8565b9350506020610e8b86828701610dc8565b9250506040610e9c86828701610ddd565b9150509250925092565b60008060408385031215610eb957600080fd5b6000610ec785828601610dc8565b9250506020610ed885828601610ddd565b9150509250929050565b6000610eee8383610fcf565b60208301905092915050565b6000610f06838361105d565b60208301905092915050565b610f1b81611273565b82525050565b610f2a81611187565b610f3481846111c2565b9250610f3f82611173565b8060005b83811015610f70578151610f578782610ee2565b9650610f62836111a8565b925050600181019050610f43565b505050505050565b610f8181611192565b610f8b81846111cd565b9250610f968261117d565b8060005b83811015610fc7578151610fae8782610efa565b9650610fb9836111b5565b925050600181019050610f9a565b505050505050565b610fd881611285565b82525050565b6000610fe98261119d565b610ff381856111d8565b93506110038185602086016112c8565b61100c8161138b565b840191505092915050565b6000611024601c836111d8565b915061102f8261139c565b602082019050919050565b60006110476012836111d8565b9150611052826113c5565b602082019050919050565b611066816112b1565b82525050565b611075816112b1565b82525050565b611084816112bb565b82525050565b600060208201905061109f6000830184610f12565b92915050565b60006020820190506110ba6000830184610f21565b92915050565b60006020820190506110d56000830184610f78565b92915050565b600060208201905081810360008301526110f58184610fde565b905092915050565b6000602082019050818103600083015261111681611017565b9050919050565b600060208201905081810360008301526111368161103a565b9050919050565b6000602082019050611152600083018461106c565b92915050565b600060208201905061116d600083018461107b565b92915050565b6000819050919050565b6000819050919050565b600060019050919050565b600060019050919050565b600081519050919050565b6000602082019050919050565b6000602082019050919050565b600081905092915050565b600081905092915050565b600082825260208201905092915050565b60006111f4826112b1565b91506111ff836112b1565b9250827fffffffffffffffffffffffffffffffffffffffffffffffffffffffffffffffff038211156112345761123361132d565b5b828201905092915050565b600061124a826112b1565b9150611255836112b1565b9250828210156112685761126761132d565b5b828203905092915050565b600061127e82611291565b9050919050565b60008115159050919050565b600073ffffffffffffffffffffffffffffffffffffffff82169050919050565b6000819050919050565b600060ff82169050919050565b60005b838110156112e65780820151818401526020810190506112cb565b838111156112f5576000848401525b50505050565b6000600282049050600182168061131357607f821691505b602082108114156113275761132661135c565b5b50919050565b7f4e487b7100000000000000000000000000000000000000000000000000000000600052601160045260246000fd5b7f4e487b7100000000000000000000000000000000000000000000000000000000600052602260045260246000fd5b6000601f19601f8301169050919050565b7f496e73756666696369656e7420436f6e6669726d65642046756e647300000000600082015250565b7f496e73756666696369656e742066756e64730000000000000000000000000000600082015250565b6113f781611273565b811461140257600080fd5b50565b61140e816112b1565b811461141957600080fd5b5056fea26469706673582212209cf91846e24a83ae4c1ef699f1161a05018dd884478dbe3d3eeb5d696539715164736f6c63430008040033",
  "linkReferences": {},
  "deployedLinkReferences": {}
}